:020000040000FA
:0600000026EF18F01200CB
:08000800D0BE3EEF18F0B4EF8A
:0400100013F01200D7
:06001800B4EF13F012002A
:02002A000000D4
:04002C00F5EC12F0ED
:100030006FDA92DA31DB6BDAD8DA02DBF6EC12F047
:100040001200010129050EE101012251006E016A31
:10005000D890015004E6FF0E005C000E015802E249
:100060000101222B1200D9CFE6FFDACFE6FFE1CF64
:10007000D9FFE2CFDAFFE6520101290573E1C00E94
:10008000F214DF6E800ED0143F09F21601012251E6
:10009000000802E2010122070101225161E1010190
:1000A00024515EE1CA0E006E280E016E000E026E33
:1000B00027C103F0046A056A00500324F36E01505F
:1000C0000420F46E02500520F86EF4CFF7FFF3CF52
:1000D000F6FF0800F5CF23F1CA0E016E280E026E5E
:1000E000000E036E01012351EA6A280FE96E010E2A
:1000F000EA22EFCF04F0056A066A01500424F36E89
:1001000002500520F46E03500620F86EF4CFF7FF7E
:10011000F3CFF6FF0800F5CF00F001012351080DE1
:10012000F35000240101266F010125510101265DD4
:1001300017E001012651E96EEA6AD890E936EA36FD
:100140009B0EE926010EEA22EECF97F1EDCF98F152
:100150000001B02B000EB123B223B323FDEC13F04A
:10016000DF50F212E552E552E5CFDAFFE7CFD9FFD3
:100170001200D9CFE6FFDACFE6FFE1CFD9FFE2CF19
:10018000DAFFE6520101290517E1C00EF214DF6E15
:10019000800ED0143F09F21601012451006E016A4D
:1001A000D890015004E6FF0E005C000E015802E2F8
:1001B0000101242BDF50F212E552E552E5CFDAFFC0
:1001C000E7CFD9FF1200D9CFE6FFDACFE6FFE1CFC4
:1001D000D9FFE2CFDAFFE652010129051CE1C00E8A
:1001E000F214DF6E800ED0143F09F2160101245183
:1001F00000080FE2010124070101245107E1010178
:10020000225104E1DF50F212C3DA02D0DF50F212C1
:1002100002D0DF50F212E552E552E5CFDAFFE7CF28
:10022000D9FF1200D9CFE6FFDACFE6FFE1CFD9FF41
:10023000E2CFDAFFE652E652010129515CE1CA0E33
:10024000006E280E016E000E026E27C103F0046AD4
:10025000056A00500324F36E01500420F46E02502E
:100260000520F86EF4CFF7FFF3CFF6FF0800F55046
:10027000DF6ECA0E006E280E016E000E026EDF5099
:10028000EA6A280FE96E010EEA22EFCF03F0046A52
:10029000056A00500324F36E01500420F46E0250EE
:1002A0000520F86EF4CFF7FFF3CFF6FF0800010E3C
:1002B000F5CFDBFF010EDBCFE6FFDF50080DF3507B
:1002C000E552E7240101266F26C125F101012651DF
:1002D000E96EEA6AD890E936EA369B0EE926010E05
:1002E000EA22EECF97F1EDCF98F197C193F198C143
:1002F00094F1F7EC12F0E552E552E552E5CFDAFF62
:10030000E7CFD9FF1200D9CFE6FFDACFE6FFE1CF82
:10031000D9FFE2CFDAFFE652020EE66EE66AF2ECB1
:100320000EF0E552E552C00EF214DF6E800ED014CE
:100330003F09F21601012B6B2C6B2D6B2E6BDF50DE
:10034000F212640EE66EE66AF2EC0EF0E552E55249
:10035000C00EF214DF6E800ED0143F09F2162BC1CE
:10036000B5F02CC1B6F02DC1B7F02EC1B8F0000128
:10037000010EBD6FDF50F212E552E552E5CFDAFF14
:10038000E7CFD9FF1200D9CFE6FFDACFE6FFE1CF02
:10039000D9FFE2CFDAFFE652E652E652E5EC12F080
:1003A000C00EF214DF6E800ED0143F09F216020167
:1003B0000F2B000E102311231223DF50F212010124
:1003C000290501E095D0010E99C1DBFF020E9AC10B
:1003D000DBFF010EDBCFE9FF020EDBCFEAFF150EDC
:1003E000E926000EEA22EF50030801E181D0C00E99
:1003F000F214DF6E800ED0143F09F216010EDBCF2F
:10040000E9FF020EDBCFEAFF120EE926000EEA2218
:10041000EE50ED105AE0010EDBCFE9FF020EDBCF0C
:10042000EAFF120EE926000EEA22EE06000EED5A51
:10043000EECF00F0EDCF01F00050011046E1010ECB
:10044000DBCFE9FF020EDBCFEAFF140EE926000E38
:10045000EA22EF50080B2CE1010EDBCFE9FF020E80
:10046000DBCFEAFF190EE926000EEA22EF50010168
:100470002713010EDBCFE9FF020EDBCFEAFF180ED8
:10048000E926000EEA22EFCF00F0010EDBCFE9FFF4
:10049000020EDBCFEAFF170EE926000EEA22EF502C
:1004A000EA6A280FE96E010EEA220050EF120DD021
:1004B000010EDBCFE9FF020EDBCFEAFF120EE926C9
:1004C000000EEA22010EEE6EED6A010EDBCFE9FFAF
:1004D000020EDBCFEAFF0E0EE926000EEA22010E25
:1004E000EECFDBFF020EEDCFDBFFDF50F21271D754
:1004F000E552E552E552E552E5CFDAFFE7CFD9FF05
:100500001200FC0EF36EF46A00D01200120012000A
:1005100002010F6B106B116B126B0101226B010159
:10052000246B01012A6B0101296B0001B06BB16BD7
:10053000B26BB36B01012B6B2C6B2D6B2E6B00011F
:10054000B96BBA6BBB6BBC6B0001B56BB66BB76BB1
:10055000B86B0001BD6B1200D9CFE6FFDACFE6FF22
:10056000E1CFD9FFE2CFDAFFE652E652E652E65299
:100570000101276BD950020FE96EDACFEAFF000EB6
:10058000EA22280EEE6E010EED6EDE6ADD6ADECF27
:1005900000F0DDCF01F0010E005C000E01580FE20B
:1005A000020EDBCFE9FFDB2A030EDBCFEAFF01E31C
:1005B000DB2AEF6ADF2A010E01E3DB2AE8D701011B
:1005C000256B0101266B0101976B986B0101936B01
:1005D000946B040EE15C02E2E16AE552E16EE552E1
:1005E000E5CFDAFFE7CFD9FF1200030EE66EE66A29
:1005F000000EE66EE66A640EE66EE66AE66AE66A93
:10060000920EE66E010EE66EE668E668030EE66E92
:100610002F0EE66E010EE66E000EE66EE66A900E96
:10062000E66E080EE66E000EE66E9CEC09F0006EBB
:10063000140EE15C02E2E16AE552E16E0050120044
:10064000030EE66EE66A000EE66EE66A640EE66E7D
:10065000E66AE66AE66A210EE66E010EE66EFE0EB8
:10066000E66EE668020EE66EBE0EE66E000EE66E02
:10067000000EE66EE66AEC0EE66E080EE66E000E02
:10068000E66E9CEC09F0006E140EE15C02E2E16A99
:10069000E552E16E00501200D9CFE6FFDACFE6FF57
:1006A000E1CFD9FFE2CFDAFFE652E652E652E65258
:1006B000E6520101996B9A6BDF6A040EDF5C0DE272
:1006C000EA6ADF34FE0BEA36E96E9B0EE926010E7C
:1006D000EA22EE6AED6ADF2AF0D7D950010FE96EFF
:1006E000DACFEAFF000EEA22A30EEE6E010EED6EE7
:1006F000D950030FE96EDACFEAFF000EEA22BE0EF0
:10070000EE6E010EED6EDF6A030EDF5C26E2010E77
:10071000DBCFE9FF020EDBCFEAFF0E0EE926000E6B
:10072000EA22030EDBCFEEFF040EDBCFEDFFD95044
:10073000010FE96E000EDA20EA6E1B0EEE26000EA7
:10074000EF22D950030FE96E000EDA20EA6E1B0E7D
:10075000EE26000EEF22DF2AD7D7010EDBCFE9FF0E
:10076000020EDBCFEAFF0E0EEB6A0F0EEB6A010101
:10077000A30E956F010E966F050EE15C02E2E16A31
:10078000E552E16EE552E5CFDAFFE7CFD9FF12007F
:10079000D9CFE6FFDACFE6FFE1CFD9FFE2CFDAFF2C
:1007A000E652E652C00EF214DF6E800ED0143F09FE
:1007B000F2160101225162E1010124515FE1CA0EEA
:1007C000006E280E016E000E026E27C103F0046A4F
:1007D000056A00500324F36E01500420F46E0250A9
:1007E0000520F86EF4CFF7FFF3CFF6FF0800010EF7
:1007F000F5CFDBFFCA0E016E280E026E000E036EEF
:10080000010EDB50EA6A280FE96E010EEA22EFCFF3
:1008100004F0056A066A01500424F36E02500520B4
:10082000F46E03500620F86EF4CFF7FFF3CFF6FF17
:100830000800F5CF00F0010EDB50080DF350002446
:100840000101266F010125510101265D17E001011B
:100850002651E96EEA6AD890E936EA369B0EE92617
:10086000010EEA22EECF97F1EDCF98F10001B02B07
:10087000000EB123B223B32339EC13F0DF50F21290
:10088000E552E552E552E5CFDAFFE7CFD9FF120096
:10089000D9CFE6FFDACFE6FFE1CFD9FFE2CFDAFF2B
:1008A000E652FC0EDBCF1AF0FD0EDBCF1BF0FC0E88
:1008B0001AC0DBFFFD0E1BC0DBFFC00EF214DF6EA3
:1008C000800ED0143F09F21601012B2B000E2C23B1
:1008D0002D232E23DF50F212F4EC12F0EED7E55266
:1008E000E552E5CFDAFFE7CFD9FF1200D9CFE6FF17
:1008F000DACFE6FFE1CFD9FFE2CFDAFF0A0EE1243B
:1009000002E3E168E652E16EFC0EDBCF1AF0FD0E69
:10091000DBCF1BF0FC0E1AC0DBFFFD0E1BC0DBFFA4
:100920000001BD5108E1C80EE66EE66AF2EC0EF079
:10093000E552E552F5D7B5C018F0B6C019F0B7C00A
:100940001AF0B8C01BF0640E1D6E1E6A1F6A206A82
:1009500056EC17F0050E18C0DBFF060E19C0DBFFC2
:10096000070E1AC0DBFF080E1BC0DBFFC00EF2141F
:10097000DF6E800ED0143F09F2162BC1B9F02CC1E6
:10098000BAF02DC1BBF02EC1BCF0010E2BC1DBFFB4
:10099000020E2CC1DBFF030E2DC1DBFF040E2EC1A6
:1009A000DBFF01012B6B2C6B2D6B2E6BDF50F212DA
:1009B000D950050FE96E000EDA20EA6ED880000EDD
:1009C000EE54000EEE54000EEE54000EEE5442E2D1
:1009D000640E046E056A066A076A010EDBCF08F032
:1009E000020EDBCF09F0030EDBCF0AF0040EDBCFE3
:1009F0000BF008C018F009C019F00AC01AF00BC0BB
:100A00001BF0050EDBCF1DF0060EDBCF1EF0070E30
:100A1000DBCF1FF0080EDBCF20F056EC17F018509C
:100A2000045C006E19500558016E1A500658026E8B
:100A30001B500758036E090E00C0DBFF090EDBCF09
:100A400000F0003404E2090EDBCFB4F002D0000164
:100A5000B46B1DD00001B46BB5C018F0B6C019F06E
:100A6000B7C01AF0B8C01BF0640E1D6E1E6A1F6A74
:100A7000206A56EC17F0050E18C0DBFF060E19C0F1
:100A8000DBFF070E1AC0DBFF080E1BC0DBFFE4EC28
:100A900012F0640EE66EE66AF2EC0EF0E552E552F4
:100AA00065D70A0EE15C02E2E16AE552E16EE552C9
:100AB000E5CFDAFFE7CFD9FF1200D9CFE6FFDACFD3
:100AC000E6FFE1CFD9FFE2CFDAFFE652E652E65287
:100AD000C00EF214DF6E800ED0143F09F216010E24
:100AE00095C1DBFF020E96C1DBFFD950010FE96E05
:100AF000000EDA20EA6EEE50ED1001E1AFD1010EEA
:100B0000DBCFE9FF020EDBCFEAFF0E0EE926000E77
:100B1000EA22EECF95F1EDCF96F1DF50F212010E01
:100B2000DBCFE9FF020EDBCFEAFFFB0EDBCFEEFFF0
:100B3000FC0EDBCFEDFF010EDBCFE9FF020EDBCFBA
:100B4000EAFF150EE926000EEA22FD0EDBCFEFFFCD
:100B5000010EDBCFE9FF020EDBCFEAFF140EE92620
:100B6000000EEA22EF6A010EDBCFE9FF020EDBCFB7
:100B7000EAFF120EEB6A130EEB6A010EDBCFE9FF00
:100B8000020EDBCFEAFF020EE926000EEA22F10E8A
:100B9000DBCFEEFFF20EDBCFEDFF010EDBCFE9FF87
:100BA000020EDBCFEAFF060EE926000EEA22F30E64
:100BB000DBCFEEFFF40EDBCFEEFFF50EDBCFEEFF6B
:100BC000F60EDBCFEEFF010EDBCFE9FF020EDBCF2F
:100BD000EAFF040EE926000EEA22F90EDBCFEEFF53
:100BE000FA0EDBCFEDFF010EDBCFE9FF020EDBCF0C
:100BF000EAFF0A0EE926000EEA22EF0EDBCFEEFF37
:100C0000F00EDBCFEDFF010EDBCFE9FF020EDBCFF5
:100C1000EAFF0C0EE926000EEA22F70EDBCFEEFF0C
:100C2000F80EDBCFEDFF010EDBCFE9FF020EDBCFCD
:100C3000EAFF1A0EE926000EEA22EF6AFD0EDB40FB
:100C4000E840E8401F0BE66E010EDBCFE9FF020E25
:100C5000DBCFEAFF170EE926000EEA22E552E75045
:100C6000EF6EC20E006E280E016E000E026E010EB7
:100C7000DBCFE9FF020EDBCFEAFF170EE926000EFD
:100C8000EA22EFCF03F0046A056A00500324F36EF2
:100C900001500420F46E02500520F86EF4CFF7FFE7
:100CA000F3CFF6FF0800F550E66E010EDBCFE9FF4B
:100CB000020EDBCFEAFF190EE926000EEA22E5520A
:100CC000E750EF6EFD0EDB50070BE66E010EDBCF3B
:100CD000E9FF020EDBCFEAFF160EE926000EEA223C
:100CE000E552E750EF6EC20E006E280E016E000E48
:100CF000026E010EDBCFE9FF020EDBCFEAFF160E1C
:100D0000E926000EEA22EFCF03F0046A056A0050DC
:100D10000324F36E01500420F46E02500520F86E97
:100D2000F4CFF7FFF3CFF6FF0800F550E66E010EA3
:100D3000DBCFE9FF020EDBCFEAFF180EE926000E3B
:100D4000EA22E552E750EF6E010EDBCFE6FF020E1E
:100D5000DBCFE6FFE6EC12F0E552E552010EDBCF09
:100D6000E6FF020EDBCFE6FFC6EC12F0E552E552DD
:100D7000C00EF214DF6E800ED0143F09F216FD0E85
:100D8000EA6ADB34FE0BEA36E96E9B0EE926010EB9
:100D9000EA22010EDBCFEEFF020EDBCFEDFF010EEC
:100DA000DBCFE9FF020EDBCFEAFF0E0EE926000ED5
:100DB000EA2299C1EEFF9AC1EDFF010EDBCFE9FFF8
:100DC000020EDBCFEAFF100EEB6A110EEB6A010197
:100DD00099519A110EE099C1E9FF9AC1EAFF100EEC
:100DE000E926000EEA22010EDBCFEEFF020EDBCF7A
:100DF000EDFF010EDBCF99F1020EDBCF9AF1010E70
:100E0000DBCFE9FF020EDBCFEAFF190EE926000E69
:100E1000EA22EF5001012713010EDBCFE9FF020E9A
:100E2000DBCFEAFF180EE926000EEA22EFCF00F032
:100E3000010EDBCFE9FF020EDBCFEAFF170EE9263A
:100E4000000EEA22EF50EA6A280FE96E010EEA224C
:100E50000050EF12DF50F212000E04D0DF50F212F9
:100E6000460E00D0E552E552E552E552E5CFDAFFF5
:100E7000E7CFD9FF1200D9CFE6FFDACFE6FFE1CF07
:100E8000D9FFE2CFDAFF070EE12402E3E168E65280
:100E9000E16E030EF36EFD0EDBCFF4FFF350F45C56
:100EA00004E3FD0EDB50FF0808E1030EF36EFC0EB9
:100EB000DBCFF4FFF350F45C02E32A0E6DD1C00ED9
:100EC000F214DF6E800ED0143F09F216FC0EEA6AAF
:100ED000DB34FE0BEA36E96E9B0EE926010EEA22B0
:100EE000EE50ED1005E0DF50F212280E55D154D12E
:100EF000FC0EEA6ADB34FE0BEA36E96E9B0EE9264D
:100F0000010EEA22010EEE6EED6ADF50F212FC0EC7
:100F1000DB40E840E8401F0BE76E040EE7CFDBFF45
:100F2000C20E006E280E016E000E026E040EDBCFA4
:100F300003F0046A056A00500324F36E0150042094
:100F4000F46E02500520F86EF4CFF7FFF3CFF6FFF2
:100F50000800060EF5CFDBFFFC0EDB50070BE76E3B
:100F6000030EE7CFDBFFC20E006E280E016E000EEF
:100F7000026E030EDBCF03F0046A056A00500324FF
:100F8000F36E01500420F46E02500520F86EF4CF89
:100F9000F7FFF3CFF6FF0800050EF5CFDBFFC00E1D
:100FA000F214DF6E800ED0143F09F216FD0EDB50F6
:100FB000FF080AE193C1E9FF94C1EAFF150EEB5067
:100FC000E76EFD0EE7CFDBFFFD0EEA6ADB34FE0BBA
:100FD000EA36E96E9B0EE926010EEA22010EEECFFB
:100FE000DBFF020EEDCFDBFFD950010FE96E000EE3
:100FF000DA20EA6EEE50ED1001E1BED0FD0EEA6A95
:10100000DB34FE0BEA36E96E9B0EE926010EEA227E
:10101000EE6AED6A010EDBCFE9FF020EDBCFEAFFDD
:10102000180EE926000EEA22EFCF00F0010EDBCF0A
:10103000E9FF020EDBCFEAFF170EE926000EEA22D7
:10104000EF50EA6A280FE96E010EEA22EF50001411
:101050003BE0010EDBCFE9FF020EDBCFEAFF180E0B
:10106000E926000EEA22EF1C006E010EDBCFE9FF3D
:10107000020EDBCFEAFF170EE926000EEA22EF5040
:10108000EA6A280FE96E010EEA220050EF16EF50CF
:101090000DE1010EDBCFE9FF020EDBCFEAFF190EF7
:1010A000E926000EEA22EF1C01012717060EDB508D
:1010B00001012713040EDB50EA6A280FE96E010EC6
:1010C000EA22050EDB50EF12FC0EEA6ADB34FE0B5F
:1010D000EA36E96E9B0EE926010EEA22010EDBCF0D
:1010E000EEFF020EDBCFEDFF010EDBCFE9FF020EBC
:1010F000DBCFEAFF150EE926000EEA22FC0EDBCF5D
:10110000EFFF010EDBCFE9FF020EDBCFEAFF170E88
:10111000E926000EEA22040EDBCFEFFF010EDBCF43
:10112000E9FF020EDBCFEAFF160EE926000EEA22E7
:10113000030EDBCFEFFF010EDBCFE9FF020EDBCFAB
:10114000EAFF190EE926000EEA22060EDBCFEFFFBA
:10115000010EDBCFE9FF020EDBCFEAFF180EE92616
:10116000000EEA22050EDBCFEFFFDF50F212C8ECD3
:1011700003F0000E11D010D0FC0EEA6ADB34FE0B37
:10118000EA36E96E9B0EE926010EEA22EE6AED6A66
:10119000DF50F212290E00D0006E070EE15C02E271
:1011A000E16AE552E16E0050E552E5CFDAFFE7CFA4
:1011B000D9FF1200D9CFE6FFDACFE6FFE1CFD9FFA2
:1011C000E2CFDAFFE652E652E652E652F60EDB5086
:1011D000030802E22A0EA2D0C00EF214DF6E800EC7
:1011E000D0143F09F216F60EEA6ADB34FE0BEA363B
:1011F000E96E9B0EE926010EEA22EE50ED1001E0A9
:1012000089D0F60EEA6ADB34FE0BEA36E96E9B0EF5
:10121000E926010EEA22010EEE6EED6ADF50F212AF
:10122000000EE66EE66AF70EDBCFE6FFF80EDBCFC8
:10123000E6FFF90EDBCFE6FFFA0EDBCFE6FFFB0E93
:10124000DBCFE6FFFC0EDBCFE6FFFD0EDBCFE6FFDC
:10125000BCEC11F0006E090EE15C02E2E16AE552BD
:10126000E16E0050DE52F3CFDEFFF4CFDDFFDD5242
:10127000000EE66EE66A000EE66EE66AE66AE66A6A
:10128000E66AE66A000EE66EE66A000EE66EE66A5A
:10129000010EDBCFE6FF020EDBCFE6FFF60EDBCF63
:1012A000E6FF0BDC006E0F0EE15C02E2E16AE55244
:1012B000E16E0050E76E030EE7CFDBFF030EDB505D
:1012C00011E1C00EF214DF6E800ED0143F09F21649
:1012D00001012A2BDF50F2120101290502E1C8ECBD
:1012E00003F015D0C00EF214DF6E800ED0143F094B
:1012F000F216F60EEA6ADB34FE0BEA36E96E9B0E56
:10130000E926010EEA22EE6AED6ADF50F212030EC0
:10131000DB5004D0DF50F212280E00D0006E040E15
:10132000E15C02E2E16AE552E16E0050E552E5CF90
:10133000DAFFE7CFD9FF1200D9CFE6FFDACFE6FF19
:10134000E1CFD9FFE2CFDAFFE652E652E652E652AB
:10135000F60EDB50030802E22A0EDBD0C00EF214B8
:10136000DF6E800ED0143F09F216F60EEA6ADB3407
:10137000FE0BEA36E96E9B0EE926010EEA22EE50DC
:10138000ED1001E0C2D0F60EEA6ADB34FE0BEA365D
:10139000E96E9B0EE926010EEA22010EEE6EED6A61
:1013A000DF50F212EA0EDB50010B04E1EA0EDB50D3
:1013B000020B17E0EE0EDBCFE6FFEF0EDBCFE6FF12
:1013C000E66AF70EDBCFE6FFF80EDBCFE6FFD5ECE3
:1013D00017F0006E050EE15C02E2E16AE552E16E93
:1013E0000050EA0EDBCFE6FFEB0EDBCFE6FFF70E99
:1013F000DBCFE6FFF80EDBCFE6FFF90EDBCFE6FF33
:10140000FA0EDBCFE6FFFB0EDBCFE6FFFC0EDBCFF9
:10141000E6FFFD0EDBCFE6FFBCEC11F0006E090E1F
:10142000E15C02E2E16AE552E16E0050DE52F3CF88
:10143000DEFFF4CFDDFFDD52EA0EDBCFE6FFEB0E81
:10144000DBCFE6FFEC0EDBCFE6FFED0EDBCFE6FFFA
:10145000D950EE0FE96EFF0EDA20EA6EEECFE6FF0E
:10146000EECFE6FFEECFE6FFEFCFE6FFF40EDBCFE9
:10147000E6FFF50EDBCFE6FFF20EDBCFE6FFF30E65
:10148000DBCFE6FF010EDBCFE6FF020EDBCFE6FF90
:10149000F60EDBCFE6FF5DEC05F0006E0F0EE15CB3
:1014A00002E2E16AE552E16E0050E76E030EE7CF1B
:1014B000DBFF030EDB5011E1C00EF214DF6E800E75
:1014C000D0143F09F21601012A2BDF50F21201015C
:1014D000290502E1C8EC03F015D0C00EF214DF6E4E
:1014E000800ED0143F09F216F60EEA6ADB34FE0BCA
:1014F000EA36E96E9B0EE926010EEA22EE6AED6AF3
:10150000DF50F212030EDB5004D0DF50F212280E2F
:1015100000D0006E040EE15C02E2E16AE552E16E89
:101520000050E552E5CFDAFFE7CFD9FF1200D9CF5F
:10153000E6FFDACFE6FFE1CFD9FFE2CFDAFFE652EE
:10154000E652E652E65201012251000802E23F0E45
:1015500052D1FD0EDB50030802E13D0E4CD1030ECB
:10156000F36EFD0EDBCFF4FFF350F45C06E3FD0EEB
:10157000DB50FF0802E02A0E3ED1C00EF214DF6EEF
:10158000800ED0143F09F216FD0EDB50FF080AE171
:1015900093C1E9FF94C1EAFF150EEB50E76EFD0E13
:1015A000E7CFDBFFFD0EEA6ADB34FE0BEA36E96EBD
:1015B0009B0EE926010EEA22010EEECFDBFF020EA2
:1015C000EDCFDBFFD950010FE96E000EDA20EA6E95
:1015D000EE50ED1001E10BD1010EDBCFE9FF020E61
:1015E000DBCFEAFF180EE926000EEA22EF1C006EA0
:1015F000010EDBCFE9FF020EDBCFEAFF170EE92673
:10160000000EEA22EF50EA6A280FE96E010EEA2284
:101610000050EF16EF500DE1010EDBCFE9FF020E97
:10162000DBCFEAFF190EE926000EEA22EF1C0101CA
:101630002717010EDBCFE9FF020EDBCFEAFF120E08
:10164000EB6A130EEB6A010EDBCFE9FF020EDBCF74
:10165000EAFF140EE926000EEA22EF6A0101245186
:10166000006E016AD890015004E6FF0E005C000E87
:10167000015802E20101242BDF50F21286EC02F045
:10168000C00EF214DF6E800ED0143F09F216010175
:101690002451000802E201012407010EDBCFE6FF1E
:1016A000020EDBCFE6FFD4EC12F0E552E552010169
:1016B0002A07FD0EEA6ADB34FE0BEA36E96E9B0E62
:1016C000E926010EEA22EE6AED6A010EDBCFE9FFA0
:1016D000020EDBCFEAFF100EE926000EEA22EE50E2
:1016E000ED1023E1010EDBCFE9FF020EDBCFEAFFB5
:1016F0000E0EE926000EEA22EE50EFCFEAFFE96E69
:10170000100EE926000EEA22EE6AED6A010EDBCF2A
:10171000E9FF020EDBCFEAFF0E0EE926000EEA22F9
:10172000EECF99F1EDCF9AF148D0010EDBCFE9FF72
:10173000020EDBCFEAFF0E0EE926000EEA22EECF04
:1017400000F0EFCF01F0010EDBCFE9FF020EDBCF9F
:10175000EAFF100EE926000EEA22EE50EFCFEAFF74
:10176000E96E0E0EE926000EEA2200C0EEFF01C06F
:10177000EDFF010EDBCFE9FF020EDBCFEAFF100E1B
:10178000E926000EEA22EECF00F0EFCF01F0010EC5
:10179000DBCFE9FF020EDBCFEAFF0E0EE926000EDB
:1017A000EA22EE50EFCFEAFFE96E100EE926000EB6
:1017B000EA2200C0EEFF01C0EDFF010EDBCFE9FF22
:1017C000020EDBCFEAFF0E0EE926000EEA2295C1DB
:1017D000EEFF96C1EDFF010EDBCF95F1020EDBCFE0
:1017E00096F1DF50F212C8EC03F0000E04D0DF5087
:1017F000F2123C0E00D0006E040EE15C02E2E16ADF
:10180000E552E16E0050E552E5CFDAFFE7CFD9FFB0
:101810001200D9CFE6FFDACFE6FFE1CFD9FFE2CF62
:10182000DAFFE652E652E652E652E652FD0EDB5091
:10183000030802E13D0E61D0030EF36EFD0EDBCF17
:10184000F4FFF350F45C06E3FD0EDB50FF0802E00A
:101850002A0E53D0FD0EDB50FF0816E1C00EF21425
:10186000DF6E800ED0143F09F21693C1E9FF94C1D8
:10187000EAFF1A0EEB50E76E010EE7CFDBFFDF50F9
:10188000F212010EDB5039D0C00EF214DF6E800E62
:10189000D0143F09F216FD0EEA6ADB34FE0BEA367D
:1018A000E96E9B0EE926010EEA22030EEECFDBFF66
:1018B000040EEDCFDBFFD950030FE96E000EDA20E6
:1018C000EA6EEE50ED100FE0030EDBCFE9FF040EE1
:1018D000DBCFEAFF1A0EE926000EEA223E0EEF6E7B
:1018E000020EDB6A05D00B0EF36E020EF3CFDBFFA8
:1018F000DF50F212020EDB5000D0006E050EE15CEC
:1019000002E2E16AE552E16E0050E552E5CFDAFF0E
:10191000E7CFD9FF1200D9CFE6FFDACFE6FFE1CF5C
:10192000D9FFE2CFDAFFE652E652E652030EF36E3B
:10193000FD0EDBCFF4FFF350F45C02E32A0E83D0FC
:10194000C00EF214DF6E800ED0143F09F216FD0EA9
:10195000EA6ADB34FE0BEA36E96E9B0EE926010EDD
:10196000EA22010EEECFDBFF020EEDCFDBFFD950F6
:10197000010FE96E000EDA20EA6EEE50ED1004E180
:10198000DF50F212640E5FD0010EDBCFE9FF020ED2
:10199000DBCFEAFF140EE926000EEA22EF50080B17
:1019A0004EE0010EDBCFE9FF020EDBCFEAFF140EA3
:1019B000E926000EEA22EF96EF503DE1010EDBCF63
:1019C000E9FF020EDBCFEAFF120EE926000EEA2243
:1019D000EE50ED1030E1010EDBCFE9FF020EDBCF60
:1019E000EAFF190EE926000EEA22EF500101271343
:1019F000010EDBCFE9FF020EDBCFEAFF180EE9266E
:101A0000000EEA22EFCF00F0010EDBCFE9FF020E5D
:101A1000DBCFEAFF170EE926000EEA22EF50EA6A52
:101A2000280FE96E010EEA220050EF12DF50F21289
:101A3000C8EC03F002D0DF50F212000E04D0DF50E9
:101A4000F212650E00D0E552E552E552E552E5CFBF
:101A5000DAFFE7CFD9FF1200D9CFE6FFDACFE6FFF2
:101A6000E1CFD9FFE2CFDAFF0D0EE12402E3E16816
:101A7000E652E16EFD0EDB50030806E2FD0EDB5080
:101A8000FF0802E02A0EEAD0FB0EDBCFE9FFFC0ED6
:101A9000DBCFEAFFEE6AEE6AEE6AEE6AFB0EDBCFA0
:101AA000E9FFFC0EDBCFEAFF040EE926000EEA2276
:101AB000EE6AEE6AEE6AEE6AC00EF214DF6E800E17
:101AC000D0143F09F216FD0EDB50FF080AE193C166
:101AD000E9FF94C1EAFF150EEB50E76EFD0EE7CF6C
:101AE000DBFFFD0EEA6ADB34FE0BEA36E96E9B0E85
:101AF000E926010EEA22010EEECFDBFF020EEDCF4A
:101B0000DBFFD950010FE96E000EDA20EA6EEE50CD
:101B1000ED1004E1DF50F2120B0EA0D0010EDBCF6E
:101B2000E9FF020EDBCFEAFF0A0EE926000EEA22E9
:101B3000EECF00F0EFCF01F00050010B04E1DF50D9
:101B4000F212820E8BD0050EDB6A060EDB6A070EE0
:101B5000DB6A080EDB6A010EDBCFE9FF020EDBCF8A
:101B6000EAFF060EE926000EEA22090EEECFDBFFA1
:101B70000A0EEECFDBFF0B0EEECFDBFF0C0EEECF2F
:101B8000DBFF010EDBCFE9FF020EDBCFEAFF040E25
:101B9000E926000EEA22030EEECFDBFF040EEDCFA6
:101BA000DBFFDF50F212030EDBCFE9FFDB06040E92
:101BB000DBCFEAFF01E2DB06EF500CE1D950050F65
:101BC000E96E000EDA20EA6EEE2A000EEE22EE2218
:101BD000EE22E9D7FB0EDBCFE9FFFC0EDBCFEAFFFD
:101BE000050EDBCFEEFF060EDBCFEEFF070EDBCFE1
:101BF000EEFF080EDBCFEEFF090EDBCF04F00A0E7E
:101C0000DBCF05F00B0EDBCF06F00C0EDBCF07F0C1
:101C1000D950050FE96E000EDA20EA6EEE50045C32
:101C2000006EEE500558016EEE500658026EEE50F2
:101C30000758036EFB0EDBCFE9FFFC0EDBCFEAFF9C
:101C4000040EE926000EEA2200C0EEFF01C0EEFFFE
:101C500002C0EEFF03C0EEFF000E00D0006E0D0EBE
:101C6000E15C02E2E16AE552E16E0050E552E5CF47
:101C7000DAFFE7CFD9FF1200D9CFE6FFDACFE6FFD0
:101C8000E1CFD9FFE2CFDAFFE652E652E652E65262
:101C9000FD0EDB50030802E15B0E96D0030EF36EDF
:101CA000FD0EDBCFF4FFF350F45C06E3FD0EDB50DA
:101CB000FF0802E02A0E88D0C00EF214DF6E800EFC
:101CC000D0143F09F216FD0EDB50FF080EE193C160
:101CD000E9FF94C1EAFF150EEB50E76EFD0EE7CF6A
:101CE000DBFFDE52010EDD6E11D093C1E9FF94C11E
:101CF000EAFF150EEB50F36EFD0EDB50F35C04E1D2
:101D0000DE52010EDD6E02D0010EDB6AFD0EEA6AC4
:101D1000DB34FE0BEA36E96E9B0EE926010EEA2261
:101D2000020EEECFDBFF030EEDCFDBFFD950020F2B
:101D3000E96E000EDA20EA6EEE50ED1004E1DF509D
:101D4000F2125A0E41D0020EDBCFE9FF030EDBCFB9
:101D5000EAFF180EE926000EEA22EF1C006E020EC2
:101D6000DBCFE9FF030EDBCFEAFF170EE926000EFB
:101D7000EA22EF50EA6A280FE96E010EEA220050CB
:101D8000EF16EF500DE1020EDBCFE9FF030EDBCFC4
:101D9000EAFF190EE926000EEA22EF1C01012717BF
:101DA000020EDBCFE9FF030EDBCFEAFF140EE926BC
:101DB000000EEA22EF86DF50F212010EDB0402E190
:101DC000C8EC03F0000E00D0006E040EE15C02E2ED
:101DD000E16AE552E16E0050E552E5CFDAFFE7CF68
:101DE000D9FF1200D9CFE6FFDACFE6FFE1CFD9FF66
:101DF000E2CFDAFFE652D950FC0FE96EFF0EDA208F
:101E0000EA6E000ED880EE54000EED5439E2C00E9A
:101E1000F214DF6E800ED0143F09F21693C1E9FF71
:101E200094C1EAFF180EEB50E81C006E93C1E9FF65
:101E300094C1EAFF170EEB50EA6A280FE96E010E13
:101E4000EA220050EF16EF5009E193C1E9FF94C177
:101E5000EAFF190EEB50E81C0101271793C1E9FFB7
:101E600094C1EAFF120EE926000EEA22FC0EDBCF37
:101E7000EEFFFD0EDBCFEDFFDF50F212C8EC03F0FA
:101E8000E552E552E5CFDAFFE7CFD9FF1200D9CF0F
:101E9000E6FFDACFE6FFE1CFD9FFE2CFDAFF060EA9
:101EA000E12402E3E168E652E16EFD0EDB5000083A
:101EB00015E3FC0EDB50000811E3FB0EDB500008BD
:101EC0000DE3D950F90FE96EFF0EDA20EA6E000E2D
:101ED000D880EE54000EED5401E337D1FC0EDB50F8
:101EE0003B0802E2510E33D1FB0EDB503B0802E20D
:101EF000520E2DD1D950F90FE96EFF0EDA20EA6E9D
:101F0000E70ED880EE54030EED5402E2530E1FD1BB
:101F1000FD0EDBCF04F0056A066A076A100E1D6E1F
:101F20000E0E1E6E1F6A206A04C018F005C019F05C
:101F300006C01AF007C01BF0E5EC15F014C004F061
:101F400015C005F016C006F017C007F0FC0EDBCF79
:101F500008F0096A0A6A0B6A3C0E1D6E1E6A1F6A47
:101F6000206A08C018F009C019F00AC01AF00BC0A6
:101F70001BF0E5EC15F014C008F015C009F016C010
:101F80000AF017C00BF008500426095005220A5029
:101F900006220B500722FB0EDBCF0CF00D6A0E6AF7
:101FA0000F6A04500C24006E05500D20016E06507F
:101FB0000E20026E07500F20036E640E1D6E1E6A07
:101FC0001F6A206A00C018F001C019F002C01AF0A0
:101FD00003C01BF0E5EC15F014C000F015C001F0D3
:101FE00016C002F017C003F0F90EDBCF10F0FA0EA6
:101FF000DBCF11F0126A136A050E1026000E1122B3
:10200000000E1222000E1322640E1D6E1E6A1F6A3D
:10201000206A10C018F011C019F012C01AF013C0D5
:102020001BF0E5EC15F014C010F015C011F016C04F
:1020300012F017C013F0E80E1D6E030E1E6E1F6A1D
:10204000206A10C018F011C019F012C01AF013C0A5
:102050001BF056EC17F018C010F019C011F01AC0A0
:1020600012F01BC013F01050002611500122125024
:1020700002221350032200C0DFFF010E01C0DBFF6C
:10208000020E02C0DBFF030E03C0DBFFD9CFE9FF66
:10209000DACFEAFFEECF18F0EECF19F0EECF1AF05C
:1020A000EFCF1BF01D6A1E6A010E1F6E206A56ECF0
:1020B00017F0040E18C0DBFF050E19C0DBFFD9CFE7
:1020C000E9FFDACFEAFFEECF18F0EECF19F0EECF4E
:1020D0001AF0EFCF1BF01D6A1E6A010E1F6E206AF8
:1020E00056EC17F014C0DEFF15C0DEFF16C0DEFF91
:1020F00017C0DDFFDD52DD52000EDBCFE6FF010E23
:10210000DBCFE6FF6FDEE552E552D950040FE96EF2
:10211000000EDA20EA6E000ED880EE54000EED5468
:1021200012E2E66A800EE66E5DDEE552E552E66A90
:10213000800EE66E57DEE552E552040EDB06050E14
:1021400001E2DB06E2D7000E02D0540E00D0006E92
:10215000060EE15C02E2E16AE552E16E0050E552F2
:10216000E5CFDAFFE7CFD9FF1200D9CFE6FFDACF0C
:10217000E6FFE1CFD9FFE2CFDAFFE652E652E652C0
:10218000030EF36EFD0EDBCFF4FFF350F45C02E3BD
:102190002A0E81D0C00EF214DF6E800ED0143F09DB
:1021A000F216FD0EEA6ADB34FE0BEA36E96E9B0E90
:1021B000E926010EEA22010EEECFDBFF020EEDCF83
:1021C000DBFFD950010FE96E000EDA20EA6EEE5007
:1021D000ED105DE0010EDBCFE9FF020EDBCFEAFF81
:1021E000120EE926000EEA22EE50ED104CE0010E30
:1021F000DBCFE9FF020EDBCFEAFF120EEB6A130E14
:10220000EB6A010EDBCFE9FF020EDBCFEAFF140E13
:10221000E926000EEA22EF50080B30E1010EDBCF79
:10222000E9FF020EDBCFEAFF190EE926000EEA22D3
:10223000EF5001012713010EDBCFE9FF020EDBCFC8
:10224000EAFF180EE926000EEA22EFCF00F0010E99
:10225000DBCFE9FF020EDBCFEAFF170EE926000E07
:10226000EA22EF50EA6A280FE96E010EEA220050D6
:10227000EF12DF50F212C8EC03F002D0DF50F2127E
:10228000000E09D004D0DF50F212500E04D0DF50FF
:10229000F2120B0E00D0E552E552E552E552E5CFC1
:1022A000DAFFE7CFD9FF1200D9CFE6FFDACFE6FF9A
:1022B000E1CFD9FFE2CFDAFFE652E652E652E6522C
:1022C000E652C00EF214DF6E800ED0143F09F216F3
:1022D000010E0FC2DBFF020E10C2DBFF030E11C2A4
:1022E000DBFF040E12C2DBFFDF50F212010EDBCF68
:1022F00000F0020EDBCF01F0030EDBCF02F0040E84
:10230000DBCF03F000C018F001C019F002C01AF0D2
:1023100003C01BF000D0050EE15C02E2E16AE55269
:10232000E16EE552E5CFDAFFE7CFD9FF1200D9CF52
:10233000E6FFDACFE6FFE1CFD9FFE2CFDAFFE652E0
:10234000C00EF214DF6E800ED0143F09F216FA0EA2
:10235000DBCF0FF2FB0EDBCF10F2FC0EDBCF11F266
:10236000FD0EDBCF12F2DF50F212E552E552E5CF5F
:08237000DAFFE7CFD9FF1200EC
:08237800D9CFE6FFDACFE6FF42
:10238000E1CFD9FFE2CFDAFFE652E652F70EDBCF1C
:10239000DEFFDBCFDDFFDFCFE9FFDF2A010EDBCF82
:1023A000EAFF01E3DB2AF90EDBCFEFFFDFCFE9FF26
:1023B000DF2A010EDBCFEAFF01E3DB2AFA0EDBCFD7
:1023C000EFFFDFCFE9FFDF2A010EDBCFEAFF01E3FA
:1023D000DB2AEF68DFCFE9FFDF2A010EDBCFEAFF60
:1023E00001E3DB2A1A0EEF6EDFCFE9FFDF2A010ED1
:1023F000DBCFEAFF01E3DB2A1B0EEF6EDFCFE9FF45
:10240000DF2A010EDBCFEAFF01E3DB2A1C0EEF6EB1
:10241000DFCFE9FFDF2A010EDBCFEAFF01E3DB2A92
:102420001D0EEF6EDFCFE9FFDF2A010EDBCFEAFFE3
:1024300001E3DB2A1E0EEF6EDFCFE9FFDF2A010E7C
:10244000DBCFEAFF01E3DB2A1F0EEF6EDFCFE9FFF0
:10245000DF2A010EDBCFEAFF01E3DB2A2A0EEF6E53
:10246000DFCFE9FFDF2A010EDBCFEAFF01E3DB2A42
:102470002B0EEF6EDFCFE9FFDF2A010EDBCFEAFF85
:1024800001E3DB2A2C0EEF6EDFCFE9FFDF2A010E1E
:10249000DBCFEAFF01E3DB2A2D0EEF6EDFCFE9FF92
:1024A000DF2A010EDBCFEAFF01E3DB2A2E0EEF6EFF
:1024B000DFCFE9FFDF2A010EDBCFEAFF01E3DB2AF2
:1024C0002F0EEF6EDFCFE9FFDF2A010EDBCFEAFF31
:1024D00001E3DB2A3A0EEF6EDFCFE9FFDF2A010EC0
:1024E000DBCFEAFF01E3DB2A3B0EEF6EDFCFE9FF34
:1024F000DF2A010EDBCFEAFF01E3DB2A3C0EEF6EA1
:10250000DFCFE9FFDF2A010EDBCFEAFF01E3DB2AA1
:102510003D0EEF6EDFCFE9FFDF2A010EDBCFEAFFD2
:1025200001E3DB2AFB0EDBCFEFFFDFCFE9FFDF2A82
:10253000010EDBCFEAFF01E3DB2AFC0EDBCFEFFF6E
:10254000DFCFE9FFDF2A010EDBCFEAFF01E3DB2A61
:10255000FD0EDBCFEFFFDFCFE9FFDF2A010EDBCF80
:10256000EAFF01E3DB2A010EEF6EDECF00F0DDCFE4
:1025700001F000C0F3FF01C0F4FF00D0E552E552C6
:10258000E552E5CFDAFFE7CFD9FF1200D9CFE6FF5A
:10259000DACFE6FFE1CFD9FFE2CFDAFFE552E5CFB0
:1025A000DAFFE7CFD9FF1200D9CFE6FFDACFE6FF97
:1025B000E1CFD9FFE2CFDAFFE552E5CFDAFFE7CF8F
:1025C000D9FF12000400120012001200D9CFE6FF5A
:1025D000DACFE6FFE1CFD9FFE2CFDAFFE552E5CF70
:1025E000DAFFE7CFD9FF1200120012001200EADF73
:1025F0000101010E296F97C1E9FF98C1EAFFEECFF3
:10260000E1FFEDCFE2FF1F0EFC1402E00600FBD756
:10261000FC5001E0FC6AE552E550E96E0500E5502A
:10262000FF6EE550FE6EE550FD6EE906F7E1E5CF81
:102630001BF0E5CF1AF0E5CF19F0E5CF18F0E5CFA4
:10264000F4FFE5CFF3FFE5CFF8FFE5CFF7FFE5CFE8
:10265000F6FFE5CFDAFFE7CFD9FFE552E5CFEAFF96
:10266000E5CFE9FFE550E5CFE0FFE5CFD8FF10006B
:102670001200800ED0143F09F216D8CFE4FFE0CF4D
:10268000E4FFE46EE9CFE4FFEACFE4FFE652D9CFFE
:10269000E6FFDACFE6FFF6CFE6FFF7CFE6FFF8CFAB
:1026A000E6FFF3CFE6FFF4CFE6FF18C0E6FF19C060
:1026B000E6FF1AC0E6FF1BC0E6FFE96A1F0EFC1426
:1026C00009E0FDCFE6FFFECFE6FFFFCFE6FF060005
:1026D000E92AF4D7E9CFE6FFFC5001E0FC6A93C198
:1026E000E9FF94C1EAFFE1CFEEFFE2CFEDFF6ADF41
:1026F00097C193F198C194F126C125F197C1E9FFE3
:1027000098C1EAFFEECFE1FFEDCFE2FFE552E550E1
:10271000E96E0500E550FF6EE550FE6EE550FD6E7A
:10272000E906F7E1E5CF1BF0E5CF1AF0E5CF19F0A8
:10273000E5CF18F0E5CFF4FFE5CFF3FFE5CFF8FFE5
:10274000E5CFF7FFE5CFF6FFE5CFDAFFE7CFD9FF1B
:10275000E552E5CFEAFFE5CFE9FFE550E5CFE0FF41
:10276000E5CFD8FF10001200D8CFE4FFE0CFE4FFA0
:10277000E46EE9CFE4FFEACFE4FFE652D9CFE6FF0B
:10278000DACFE6FFF6CFE6FFF7CFE6FFF8CFE6FFBA
:10279000F3CFE6FFF4CFE6FF18C0E6FF19C0E6FF6F
:1027A0001AC0E6FF1BC0E6FF0101222B34EC18F033
:1027B00033EC00F0E552E5CF1BF0E5CF1AF0E5CFA2
:1027C00019F0E5CF18F0E5CFF4FFE5CFF3FFE5CF43
:1027D000F8FFE5CFF7FFE5CFF6FFE5CFDAFFE7CF6C
:1027E000D9FFE552E5CFEAFFE5CFE9FFE550E5CFB8
:1027F000E0FFE5CFD8FF1000120006000600E5520A
:10280000E552E552E96A1F0EFC1409E0FDCFE6FF30
:10281000FECFE6FFFFCFE6FF0600E92AF4D7E9CFB7
:10282000E6FFFC5001E0FC6A93C1E9FF94C1EAFFB6
:10283000E1CFEEFFE2CFEDFFC5DE97C193F198C186
:1028400094F126C125F197C1E9FF98C1EAFFEECFC7
:10285000E1FFEDCFE2FF1F0EFC1402E00600FBD704
:10286000FC5001E0FC6AE552E550E96E0500E550D8
:10287000FF6EE550FE6EE550FD6EE906F7E1E5CF2F
:102880001BF0E5CF1AF0E5CF19F0E5CF18F0E5CF52
:10289000F4FFE5CFF3FFE5CFF8FFE5CFF7FFE5CF96
:1028A000F6FFE5CFDAFFE7CFD9FFE552E5CFEAFF44
:1028B000E5CFE9FFE550E5CFE0FFE5CFD8FF100019
:0228C000120004
:0E28C200010204081020408000000100020006
:1028D00001000300010002000100040001000200E9
:1028E00001000300010002000100050001000200D8
:1028F00001000300010002000100040001000200C9
:1029000001000300010002000100060001000200B6
:1029100001000300010002000100040001000200A8
:102920000100030001000200010005000100020097
:102930000100030001000200010004000100020088
:102940000100030001000200010007000100020075
:102950000100030001000200010004000100020068
:102960000100030001000200010005000100020057
:102970000100030001000200010004000100020048
:102980000100030001000200010006000100020036
:102990000100030001000200010004000100020028
:1029A0000100030001000200010005000100020017
:1029B0000100030001000200010004000100020008
:0A29C0000100030001000200010005
:0629CA00D9CFE6FFDACFD1
:1029D000E6FFE1CFD9FFE2CFDAFF0F0E83160F0E2D
:1029E00095169594959295908C948C928C908DECF4
:1029F00017F0300EE66EA9EC16F0E552050EE66E05
:102A0000EFEC17F0E552300EE66EA9EC16F0E55249
:102A1000010EE66EEFEC17F0E552320EE66EA9EC11
:102A200016F0E55299EC17F0000901E0FBD799EC9C
:102A300017F0000901E0FBD7FD0EDBCFE6FFA9ECA4
:102A400016F0E55299EC17F0000901E0FBD7080EEB
:102A5000E66EA9EC16F0E55299EC17F0000901E0DA
:102A6000FBD70F0EE66EA9EC16F0E55299EC17F0C5
:102A7000000901E0FBD7010EE66EA9EC16F0E55265
:102A800099EC17F0000901E0FBD7040EE66EA9EC03
:102A900016F0E55299EC17F0000901E0FBD7800E23
:102AA000E66E1DEC16F0E55200D0E552E5CFDAFFF8
:062AB000E7CFD9FF120080
:0A2AB6002A0EF66E000EF76E000EF9
:102AC000F86E02010900F550186F0900F550196FF2
:102AD00003E1186701D03DD00900F550136F0900DC
:102AE000F550146F0900F550156F09000900F550F5
:102AF000E96E0900F550EA6E090009000900F55079
:102B0000166F0900F550176F09000900F6CF1AF289
:102B1000F7CF1BF2F8CF1CF213C2F6FF14C2F7FF77
:102B200015C2F8FF0201165302E1175307E009002E
:102B3000F550EE6E1607F8E21707F9D71AC2F6FF3E
:102B40001BC2F7FF1CC2F8FF02011807000E195B39
:042B5000BFD71200D9
:0C2B5400D9CFE6FFDACFE6FFE1CFD9FFD2
:102B6000E2CFDAFFFB0EDBCFF6FFFC0EDBCFF7FF89
:102B7000FD0EDBCFF8FF0800F55020E099EC17F0D0
:102B8000000901E0FBD7FB0EDBCFF6FFFC0EDBCF2D
:102B9000F7FFFD0EDBCFF8FF0800F550E66E7BEC8B
:102BA00016F0E552D950FB0FE96EFF0EDA20EA6EFF
:102BB000EE2A000EEE22000EEE22D4D700D0E5520F
:0A2BC000E5CFDAFFE7CFD9FF1200DE
:062BCA0018501D02F3CFBC
:102BD00014F0F4CF15F01E02F3501526000EF42069
:102BE000166E18501F02F3501626000EF420176EB2
:102BF00018502002F350172619501D02F3501526C5
:102C0000F4501622000E172219501E02F3501626F9
:102C1000F450172219501F02F35017261A501D02A4
:102C2000F3501626F45017221A501E02F35017269E
:0A2C30001B501D02F350172612007E
:062C3A00D9CFE6FFDACF5E
:102C4000E6FFE1CFD9FFE2CFDAFF0F0E95160F0EA8
:102C50008316FD0EDB508009F00B83128C948C924E
:102C60007AEC17F08C807AEC17F08C900F0E8316AC
:102C7000FD0EDB38F00BF00B83127AEC17F08C8032
:102C80007AEC17F08C90F00E951200D0E552E5CF5B
:082C9000DAFFE7CFD9FF1200C3
:082C9800D9CFE6FFDACFE6FF19
:102CA000E1CFD9FFE2CFDAFF0F0E95160F0E831694
:102CB000FD0EDB504009F00B83128C948C927AEC61
:102CC00017F08C807AEC17F08C900F0E8316FD0EA7
:102CD000DB38F00BF00B83127AEC17F08C807AEC77
:102CE00017F08C90F00E951200D0E552E5CFDAFF88
:062CF000E7CFD9FF12003E
:0A2CF600D9CFE6FFDACFE6FFE1CF09
:102D0000D9FFE2CFDAFF0F0E95160F0E8316FD0ED8
:102D1000DB50F00B83128C828C947AEC17F08C8051
:102D20007AEC17F08C900F0E8316FD0EDB38F00B4B
:102D3000F00B83127AEC17F08C807AEC17F08C9001
:102D4000F00E951200D0E552E5CFDAFFE7CFD9FFBC
:022D500012006F
:0E2D5200D9CFE6FFDACFE6FFE1CFD9FFE2CF1F
:102D6000DAFF0F0E95160F0E8316FD0EDB50F00BDB
:102D700083128C948C927AEC17F08C807AEC17F09A
:102D80008C900F0E8316FD0EDB38F00BF00B8312C8
:102D90007AEC17F08C807AEC17F08C90F00E95128C
:0E2DA00000D0E552E5CFDAFFE7CFD9FF1200F1
:022DAE00D9CF7B
:102DB000E6FFDACFE6FFE1CFD9FFE2CFDAFFFC0E84
:102DC000DBCFE9FFFD0EDBCFEAFFEF5016E099EC19
:102DD00017F0000901E0FBD7FC0EDBCFE9FFFD0E89
:102DE000DBCFEAFFEF50E66E7BEC16F0E552FC0E0F
:102DF000DB2AFD0E01E3DB2AE2D700D0E552E5CF66
:082E0000DAFFE7CFD9FF120051
:082E0800D9CFE6FFDACFE6FFA7
:102E1000E1CFD9FFE2CFDAFFE6528C848C827AECE4
:102E200017F08C807AEC17F0F00E8314DF6E8C9024
:102E30007AEC17F08C807AEC17F083380F0B0F0BBD
:102E4000DF128C908C928C94DF5000D0E552E552CA
:0A2E5000E5CFDAFFE7CFD9FF12004B
:062E5A00D9CFE6FFDACF3C
:102E6000E6FFE1CFD9FFE2CFDAFFE6528C848C9205
:102E70007AEC17F08C807AEC17F0F00E8314DF6E8A
:102E80008C907AEC17F08C807AEC17F083380F0B6B
:102E90000F0BDF128C908C947F0EDF1400D0E55264
:0C2EA000E552E5CFDAFFE7CFD9FF1200C2
:042EAC00176A166A21
:102EB000156A146A200EE76ED890183619361A363D
:102EC0001B3614361536163617361D50145C1E5038
:102ED00015581F5016582050175809E31D50145EFE
:102EE0001E50155A1F50165A2050175A182AE72EEE
:042EF000E4D7120011
:0C2EF400000000000000000000000000D2
:102F000000000000000000000000000000000000C1
:102F1000000000000000000012000F0EE66E06EC3C
:102F200018F0E5521200050EE66E06EC18F0E552B8
:022F300012008D
:0E2F32008C848C927AEC17F08C807AEC17F07D
:102F400083AE0BD08C907AEC17F08C807AEC17F073
:102F50008C908C94010E0BD00AD08C907AEC17F0E8
:102F60008C807AEC17F08C908C94000E00D01200BC
:102F7000D9CFE6FFDACFE6FFE1CFD9FFE2CFDAFF24
:102F8000E552E5CFDAFFE7CFD9FF1200D9CFE6FF50
:102F9000DACFE6FFE1CFD9FFE2CFDAFFE552E5CFA6
:0A2FA000DAFFE7CFD9FF120012009C
:062FAA00FE0EE3CFE9FF7B
:102FB000FF0EE3CFEAFFE9CFF3FFEACFF4FFFB0E0A
:102FC000E35003E1FC0EE35009E0FB0EE30602E2EE
:0E2FD000FC0EE306FD0EE350EE6EF1D712008C
:022FDE00FF0EE4
:102FE000E350256EEF0E01D0F30EE76EE72EF6EFFD
:102FF00017F00C0E246EE76AE72EFCEF17F0242E74
:0C300000FBEF17F0252EF4EF17F0120084
:04300C00FF0EE35080
:10301000256E480E01D04C0EE76EE72EFED7E76A0C
:0C302000E72EFED7252EF7D70000120087
:04302C00000EF36E31
:1030300000EE00F0060E01D81200EA6002D0EE6A3F
:0C304000FCD7F350E9601200EE6AFCD7E8
:04304C0010EE80F012
:1030500020EE80F0F86A239C5BEC15F041EC18F050
:08306000D4EC17F0FBD71200BD
:08306800F2A407D0F294D80E87
:10307000D76EA00ED66EC3EC01F01200E652E552F8
:0230800011003D
:0230820012003A
:00000001FF
